:020000040800F2
:1000000020080020C12200089D0200089F0200086D
:10001000A3020008A7020008AB02000800000000CD
:10002000000000000000000000000000AF02000817
:10003000B102000800000000B3020008B502000889
:10004000DB220008DB220008DB220008DB2200089C
:10005000DB220008DB220008DB220008DB2200088C
:10006000DB220008DB220008DB220008DB2200087C
:10007000DB220008DB220008DB220008DB2200086C
:10008000DB220008DB220008DB220008DB2200085C
:10009000DB220008DB220008DB220008DB2200084C
:1000A000DB220008DB220008DB220008DB2200083C
:1000B000DB220008DB220008DB220008DB2200082C
:1000C000DB220008DB220008DB220008DB2200081C
:1000D000DB220008DB22000831220008DB220008B6
:1000E000DB220008DB220008DB220008DB220008FC
:1000F000DB220008DB220008DB220008DB220008EC
:10010000DB220008DB220008DB220008DB220008DB
:10011000DB220008DB220008A71A0008DB22000807
:10012000DB220008DB220008DB220008DB220008BB
:1001300000F002F800F043F80AA090E8000C8244B6
:100140008344AAF10107DA4501D100F038F8AFF293
:10015000090EBAE80F0013F0010F18BFFB1A43F0A5
:10016000010318472045000040450000103A24BF15
:1001700078C878C1FAD8520724BF30C830C144BF0C
:1001800004680C607047000000230024002500264E
:10019000103A28BF78C1FBD8520728BF30C148BFEA
:1001A0000B6070471FB503F0B1FE04000020002172
:1001B00003F004FF401C60601FBD10B510BD03F0CC
:1001C00080FE1146FFF7EEFF00F008F803F0B0FEE6
:1001D00003B4FFF7F2FF03BC01F0CEFF00BF00BF86
:1001E000C72400BF00BF00BF00BF01F05BFF4FF49A
:1001F000A06002F085F84FF4165001F0CCFF00F03B
:100200004BF90821204600F0A8F90821204600F00B
:1002100032FA00F089F900F0EFFF37E01C4800885F
:1002200000F4004090B300BF00BF01F030F819485F
:100230000078012827D10020164908706F21164840
:1002400002F088FD00BF4021134802F0F1FD0128B3
:10025000F9D16B21104802F07DFD00BF40210E480E
:1002600002F0E6FD0128F9D10D210B4802F072FDE4
:1002700000BF4021084802F0DBFD0128F9D10A2126
:10028000054802F067FD002001490880C6E700002C
:10029000E00000201C00002000440040704700BF28
:1002A000FEE700BFFEE700BFFEE700BFFEE77047C6
:1002B00070477047704700000CB500200190009017
:1002C0006C48006840F480306A49086000BF6948A3
:1002D000006800F4003000900198401C01900098E4
:1002E00018B90198B0F5A06FF1D16248006800F428
:1002F000003010B10120009001E000200090009833
:10030000012843D15C48006840F010005A49086059
:100310000846006820F0030008600846006840F0C6
:1003200002000860534840685249486008464068E7
:1003300048600846406840F480604860084640686D
:1003400020F47C1048600846406840F4E81048609B
:100350000846006840F08070086000BF45480068AB
:1003600000F000700028F9D04248406820F00300F7
:10037000404948600846406840F00200486000BFBD
:100380003C48406800F00C000828F9D10CBD10B5BD
:10039000FFF792FF10BD10B53648006840F001002D
:1003A000344908600846406834490840314948608B
:1003B00008460068324908402E490860084600682F
:1003C00020F4802008600846406820F4FE00486061
:1003D0004FF41F008860FFF7DAFF4FF000602949F3
:1003E000086010BD10B5002100200022214B5B6881
:1003F00003F00C0121B1042906D0082928D107E017
:10040000214B224C236027E01F4B204C236023E02C
:10041000184B5B6803F47010164B5B6803F4803272
:10042000022303EB904022B9194B4343174C23603E
:100430000DE0104B5B6803F4003323B1144B4343CE
:10044000124C236003E0104B4343104C236003E045
:100450000D4B0E4C236000BF00BF064B5B68C3F31F
:1004600003130C4CE15C094B1B68CB40074C236029
:1004700010BD000000100240002002400000FFF804
:10048000FFFFF6FE08ED00E000127A0020000020D9
:1004900000093D002400002008B501211C2002F0C5
:1004A000B9FA0420ADF8000010208DF803000320F5
:1004B0008DF802006946194801F0F0FF0421174841
:1004C00002F099F84FF48050ADF8000069461448E6
:1004D00001F0E4FF4FF48051114802F08CF84FF422
:1004E000C040ADF8000069460E4801F0D7FF4FF458
:1004F00000510C4802F081F84FF48041094802F0A5
:100500007CF84FF40040ADF8000028208DF803007F
:100510004FF40041034802F070F808BD000C0140A0
:10052000000801400010014008B50121082002F038
:1005300071FA4FF47040ADF8000010208DF8030000
:1005400003208DF802006946F74801F0A7FF4FF439
:100550007041F54802F04FF808BD30B58DB0054642
:100560000C460121C80202F055FA01210D2002F0CB
:1005700051FA4FF47060ADF8300018208DF8330058
:1005800003208DF832000CA9E84801F087FF4FF4F2
:100590006040ADF8300018208DF8330003208DF84E
:1005A0003200A0B2ADF824002020ADF82600A8B299
:1005B000ADF828000020ADF82A0009A9DC4802F0B7
:1005C00065FD6020ADF814000120ADF81600002094
:1005D000ADF81800A0B2ADF81A000020ADF81C006C
:1005E000ADF81E004FF48070ADF820000020ADF88B
:1005F000220005A9CE4802F086FD0821CC4803F070
:10060000D1F905A9CA4802F0C0FD0821C84803F085
:10061000D2F905A9C64802F005FE0821C44803F036
:10062000D7F905A9C24802F048FE0821C04803F0E6
:10063000D8F90020ADF80400ADF80800ADF80A00C4
:10064000ADF80C004FF40050ADF80E004000ADF8CE
:10065000100001A9B64803F035F80121B44803F0B1
:1006600071F90121B24803F06DF80121B04803F09F
:1006700075F80DB030BD30B58DB005460C46012182
:10068000480302F0C7F901211D2002F0C3F98020C0
:10069000ADF8300018208DF8330003208DF83200BB
:1006A000ADF8300018208DF8330003208DF83200AB
:1006B0004FF47070ADF8300018208DF8330003202F
:1006C0008DF832000CA99B4801F0E8FEA0B2ADF80D
:1006D00024002020ADF82600A8B2ADF828000020A4
:1006E000ADF82A0009A9944802F0D0FC6020ADF8CA
:1006F00014000120ADF816000020ADF81800A0B2DB
:10070000ADF81A000020ADF81C00ADF81E004FF443
:100710008070ADF820000020ADF8220005A98648C1
:1007200002F0F1FC0821844803F03CF905A9824855
:1007300002F02BFD0821804803F03DF905A97E4811
:1007400002F070FD08217C4803F042F905A97A48BF
:1007500002F0B3FD0821784803F043F94FF400603C
:10076000ADF804000020ADF80800ADF80A00ADF8BF
:100770000C004FF40050ADF80E004000ADF8100032
:1007800001A96D4802F09EFF01216B4803F0DAF8E1
:100790000121694802F0D6FF0121674802F0DEFF1F
:1007A0000DB030BD2DE9F05F05460F4616461C46DC
:1007B0004FF0000A384603F08FFD81465F4801681C
:1007C000484603F073FC804603F04EFD00F0FF0A3C
:1007D000384603F081FD814659480168484603F0D8
:1007E00065FC804603F040FD00F0FF0A384603F048
:1007F00073FD814653480168484603F057FC804624
:1008000003F032FD00F0FF0A384603F065FD814633
:100810004D480168484603F049FC804603F024FD3A
:1008200000F0FF0A012E7DD1012D25D1384603F0BD
:1008300053FD834641480168584603F037FC814622
:1008400003F012FD00F0FF0841463B4803F012FAA6
:100850000021394803F010FA002C0CD001203B494C
:100860000870800703F025FA394908803948046088
:100870000120394908705BE1022D28D1384603F088
:100880002BFD83462E480168584603F00FFC814635
:1008900003F0EAFC00F0FF084146274803F0EEF9B8
:1008A0000021254803F0ECF9002CE4D001202B496D
:1008B00008702B4803F0FDF92A4908802A4800688F
:1008C00020442949086001202849087030E1032D9F
:1008D00058D1384603F000FD83461A48016858464F
:1008E00003F0E4FB814603F0BFFC00F0FF08414643
:1008F0000F4803F0BFF900210D4803F0BDF9002CAB
:10090000B9D001201A4908701A4803F0D2F91A49DF
:1009100008801A48006820441849086001201849D6
:10092000087005E159E00000000C0140000801409A
:10093000002C014000100140003401400400002060
:10094000080000200C0000201000002038000020CB
:100950003C0000204400002034000020390000202A
:10096000000400403E000020480000203500002028
:100970003A00002000080040400000204C00002009
:1009800036000020042DA1D1384603F0A5FC834693
:10099000FA480168584603F089FB814603F064FC7D
:1009A00000F0FF084146F64803F068F90021F448DA
:1009B00003F066F9002C89D00120F2490870F24852
:1009C00003F077F9F1490880F14800682044F049C4
:1009D00008600120EF490870AAE0002EA1D1012D86
:1009E00028D10021EC4803F045F9384603F074FCA7
:1009F0008346EA480168584603F058FB814603F0F5
:100A000033FC00F0FF084146E34803F035F9002CC1
:100A100087D00020E2490870A80703F04AF9E149AD
:100A20000880E1480068001BDF4908600120DF49B9
:100A300008707DE0022D28D10021D74803F01EF96F
:100A4000384603F049FC8346D9480168584603F00C
:100A50002DFB814603F008FC00F0FF084146CE481C
:100A600003F00EF9002C63D00020D2490870D24860
:100A700003F01FF9D1490880D1480068001BD04914
:100A800008600120CF49087052E0032D27D10021D2
:100A9000BB4803F0EFF8384603F01EFC8346CA4813
:100AA0000168584603F002FB814603F0DDFB00F0CD
:100AB000FF084146B24803F0DFF8CCB30020C34939
:100AC0000870C34803F0F5F8C2490880C2480068BE
:100AD000001BC14908600120C049087028E0042DAE
:100AE00026D10021A64803F0C9F8384603F0F4FBEC
:100AF0008346A2480168584603F0D8FA814603F0BD
:100B0000B3FB00F0FF0841469D4803F0B9F87CB103
:100B100000209C4908709C4803F0CBF89B49088052
:100B20009B480068001B9A49086001209949087099
:100B3000BDE8F09F10B50446012C0FD10021964866
:100B400003F098F80021944803F096F800209749A4
:100B50000870934908709449086034E0022C0FD162
:100B600000218D4803F08AF800218B4803F088F8B3
:100B70000020944908708F4908709149086022E06C
:100B8000032C0FD100217E4803F074F800217C482B
:100B900003F072F80020914908708C4908708E4962
:100BA000086010E0042C0ED10021754803F066F8AF
:100BB0000021734803F064F80020764908707149F9
:100BC00008707349086010BD2DE9F041774800783E
:100BD000012859D1800703F06CF807467048007867
:100BE000012826D16F480088391A6F480068814271
:100BF00008DB0120FFF79EFF00206C4908706A495E
:100C0000086041E067480088381A3DD5654800888B
:100C1000381A4FF6FF71014463480068814233DBA4
:100C20000120FFF787FF0020604908705E490860D7
:100C30002AE05B48007838BB5A480088C11B5A48F4
:100C400000684042814208DB0120FFF773FF00206B
:100C5000564908705449086016E052480088C01B85
:100C600012D550480088C01B4FF6FF7101444E4812
:100C700000684042814207DB0120FFF75BFF002054
:100C80004A490870484908604E480078012859D1FF
:100C9000494803F00EF8044646480078012826D15A
:100CA00046480088211A46480068814208DB022035
:100CB000FFF740FF0020434908704149086041E0C8
:100CC0003E480088201A3DD53C480088201A4FF63F
:100CD000FF7101443A480068814233DB0220FFF78C
:100CE00029FF002037490870354908602AE031485B
:100CF000007838BB31480088011B31480068404209
:100D0000814208DB0220FFF715FF00202D49087003
:100D10002B49086016E029480088001B12D5274897
:100D20000088001B4FF6FF710144254800684042CF
:100D3000814207DB0220FFF7FDFE002021490870F9
:100D40001F49086025480078012816D1204802F084
:100D5000B0FF05461D480078012858D11D4800887D
:100D6000291A1D48006881423ADB0320FFF7E2FEA2
:100D700000201A4908701849086073E0100000202C
:100D8000002C01403B000020000C004042000020ED
:100D900050000020370000200034014004000020F3
:100DA000380000203C0000204400002034000020D7
:100DB0000800002039000020000400403E00002010
:100DC00048000020350000200C0000203A000020E0
:100DD00000080040400000204C00002036000020A9
:100DE00050480088281A3DD54E480088281A4FF6EA
:100DF000FF7101444C480068814233DB0320FFF758
:100E000099FE002049490870474908602AE048488F
:100E1000007838BB43480088411B43480068404283
:100E2000814208DB0320FFF785FE00203F49087060
:100E30003D49086016E03B480088401B12D5394800
:100E40000088401B4FF6FF7101443748006840425C
:100E5000814207DB0320FFF76DFE00203349087055
:100E60003149086033480078012859D1324802F0EE
:100E700020FF064631480078012826D130480088F6
:100E8000311A30480068814208DB0420FFF752FE27
:100E90000020284908702B49086041E02848008854
:100EA000301A3DD526480088301A4FF6FF710144AC
:100EB00024480068814233DB0420FFF73BFE00201A
:100EC0001C4908701F4908602AE01C48007838BB9C
:100ED0001B480088811B1B4800684042814208DB98
:100EE0000420FFF727FE002012490870154908600A
:100EF00016E013480088801B12D511480088801B1B
:100F00004FF6FF7101440F4800684042814207DB01
:100F10000420FFF70FFE0020064908700949086009
:100F2000BDE8F081400000204C0000203600002089
:100F30003A00002037000020000C00403B00002059
:100F4000420000205000002000B587B00121084673
:100F500001F06DFD01210D2001F05CFD01219D4896
:100F600001F06DFB01219C4801F069FB01219B48C8
:100F700001F065FB4FF40040ADF8000048208DF80B
:100F800003006946964801F089FA0820ADF8000090
:100F900048208DF803006946924801F07FFA4FF02F
:100FA000804001F09FFF04A802F09CFB40F2135028
:100FB000ADF8100042F6F820ADF814000020ADF8AE
:100FC0001600ADF8120004A94FF0804002F05EF860
:100FD00002231A460321580702F067FC01A802F019
:100FE00094FB0520ADF80C0001A9800702F0E1FA9E
:100FF0000121880702F06CFE0121880702F0A2FBA4
:1010000000214FF0804002F031FE07B000BD00B576
:1010100087B00121022001F00AFD0121092001F021
:10102000F9FC0121704801F00AFB684601F0C1FAA1
:101030003020ADF8000048208DF80300694669486B
:1010400001F02CFA694801F04DFF04A802F04AFBB8
:1010500040F21350ADF8100042F6F820ADF814003D
:101060000020ADF81600ADF8120004A95F4802F0A8
:101070000DF800231A4603215C4802F016FC01A873
:1010800002F043FB0520ADF80C0001A9574802F01F
:1010900090FA0121554802F01BFE0121534802F04D
:1010A00051FB0021514802F0E1FD07B000BD00B541
:1010B00087B00121042001F0BAFC0121092001F0D0
:1010C000A9FCC020ADF8000048208DF80300694657
:1010D000444801F0E3F9464801F004FF04A802F097
:1010E00001FB40F21350ADF8100042F6F820ADF8C5
:1010F00014000020ADF81600ADF8120004A93C4819
:1011000001F0C4FF00231A460321394802F0CDFB49
:1011100001A802F0FAFA0520ADF80C0001A9344844
:1011200002F047FA0121324802F0D2FD0121304895
:1011300002F008FB00212E4802F098FD07B000BD28
:1011400000B587B00121082001F071FC01210520C4
:1011500001F060FC0320ADF8000048208DF803008A
:1011600069461F4801F09AF9224801F0BBFE04A825
:1011700002F0B8FA40F21350ADF8100042F6F82031
:10118000ADF814000020ADF81600ADF8120004A967
:10119000184801F07BFF00231A460321154802F08E
:1011A00084FB01A802F0B1FA0520ADF80C0001A9FA
:1011B000104802F0FEF901210E4802F089FD0121DC
:1011C0000C4802F0BFFA00210A4802F04FFD07B0B8
:1011D00000BD0000000230000003180000011800EC
:1011E00000080140000C014000081A000004004003
:1011F00000080040000C00401FB50121102001F044
:1012000016FC1A4801F06EFE4FF47A70ADF8040037
:1012100041F61F40ADF808000020ADF80A00ADF817
:10122000060001A9114801F031FF01210F4802F029
:101230004FFD012211460D4802F09FFA4FF4A060C5
:1012400001F05EF836208DF8000000208DF80100D6
:1012500002208DF8020001208DF80300684601F09D
:1012600054F80121014802F06DFA1FBD0010004042
:1012700030B502460B460020002105E0545C84EAAC
:101280004004FE4D285D491C9942F7DB30BD2DE935
:10129000F0410024012501260127F9A1F94802F0B7
:1012A0003CFD002872D0FFF74FFEFFF7B0FEFFF7BE
:1012B000FEFEFFF745FFF2A1F24802F02EFD0446C4
:1012C000E0782C287DD1E0792C287AD1E07A2C287E
:1012D00077D1E07B2C2874D1607C232871D1207BCE
:1012E000303864214843617B303901EB810100EBE8
:1012F0004101A07B30380844E34908602079303848
:10130000642148436179303901EB810100EB4101EF
:10131000A07930380844DD49088008460088FF2855
:101320000FDC00BF0DB9012000E000200246D748C5
:101330000088C0F1FF00C1B200230120FFF732FA9C
:101340000DE000250DB9012000E000200246CF4845
:101350000078401CC1B200230120FFF723FA207A55
:10136000303864214843617A303901EB810100EB68
:101370004101A07A30380844C549088008460088F1
:10138000FF2810DC012515B9012001E01CE0002038
:101390000246BF480088C0F1FF00C1B2002303200D
:1013A000FFF700FA0DE000250DB9012000E0002054
:1013B0000246B7480078401CC1B200230320FFF763
:1013C000F1F90120B3490870BDE8F08110B5B2A170
:1013D000AC4802F0A2FCD0B10023012264211046E7
:1013E000FFF7E0F900231A4664210220FFF7DAF93B
:1013F00000231A4664210320FFF7D4F900230122B9
:1014000064210420FFF7CEF90120A249087010BD25
:101410002DE9F047A2A19B4802F07FFC00287DD077
:101420000023012232211046FFF7BCF900230122DC
:1014300032210220FFF7B6F90023012232210320D6
:10144000FFF7B0F90023012232210420FFF7AAF9A7
:101450004FF47A7000F063FE4FF47A7000F05FFE94
:101460004FF47A7000F05BFE4FF47A7000F057FE94
:101470000120FFF75FFB0220FFF75CFB0320FFF773
:1014800059FB0420FFF756FB4FF0804002F011FC9F
:101490000446854802F00DFC0546844802F009FC2C
:1014A0000646834802F005FC0746AC420CDD2846A0
:1014B00002F012FF8046204602F00EFF81464146B0
:1014C00002F0F4FD7B490860AC420CDA204602F0E1
:1014D00003FF8046284602F0FFFE8146414602F0A7
:1014E000E5FD75490860BE420CDD384602F0F4FEA9
:1014F0008046304602F0F0FE8146414602F0D6FDBD
:101500006E490860BE420EDA304602F0E5FE8046C3
:10151000384602F0E1FE8146414600E006E002F076
:10152000C5FD6749086001205A490870BDE8F08789
:1015300010B564A1534802F0F0FBF0B14FF4FA7318
:10154000002232210120FFF72DF94FF4FA73002217
:1015500032210220FFF726F94FF4FA7300223221DC
:101560000320FFF71FF94FF4FA7300223221042001
:10157000FFF718F901204749087010BD10B554A1B4
:10158000404802F0CAFBF0B14FF4C8630122322197
:101590001046FFF707F94FF4C863012232210220F9
:1015A000FFF700F94FF4C863012232210320FFF74F
:1015B000F9F84FF4C863012232210420FFF7F2F852
:1015C00001203449087010BD10B544A12D4802F027
:1015D000A4FB70B10120FFF7ADFA0220FFF7AAFAD1
:1015E0000320FFF7A7FA0420FFF7A4FA01202949F6
:1015F000087010BD10B53BA1224802F08EFB48B127
:1016000038A1204802F089FB0446201D02F078FB37
:101610003649086010BD30B58DB03421684602F0FF
:101620008EFB0024002532A1164802F076FB00282C
:1016300023D04FF0804002F03CFB044643208DF85D
:1016400000004F208DF8010044208DF80200452055
:101650008DF8030031208DF8040028208DF8050056
:1016600042F2107094FBF0F03030C0B28DF80600FA
:1016700042F2107094FBF0F13EE0D6E182450008A2
:1016800040444A00F8000020140000201800002008
:101690001A0000201C0000204053544152542300E3
:1016A00040494E4954230000000400400008004017
:1016B000000C004004000020080000200C00002066
:1016C0001000002040524F554E44322300000000CD
:1016D00040524F554E443123000000004053544FB8
:1016E0005023000040504944000000008C000020BE
:1016F00040434F444523000000FB114084B24FF4A7
:101700007A7094FBF0F03030C0B28DF807004FF4DF
:101710007A7094FBF0F100FB114084B2642094FBDA
:10172000F0F03030C0B28DF80800642094FBF0F186
:1017300000FB114084B20A2094FBF0F03030C0B2BC
:101740008DF809000A2094FBF0F100FB114084B2EF
:1017500004F13000C0B28DF80A0029208DF80B008A
:101760000D208DF80C000A208DF80D0000BF0DE053
:101770001DF80510AE4801F0EDFA00BF4021AC485D
:1017800001F056FB0128F9D1681CC5B20E2DEFDB24
:10179000A84802F08EFA044643208DF800004F203E
:1017A0008DF8010044208DF8020045208DF80300DB
:1017B00032208DF8040028208DF8050042F21070C8
:1017C00094FBF0F03030C0B28DF8060042F2107099
:1017D00094FBF0F100FB114084B24FF47A7094FB5B
:1017E000F0F03030C0B28DF807004FF47A7094FBFF
:1017F000F0F100FB114084B2642094FBF0F0303033
:10180000C0B28DF80800642094FBF0F100FB114099
:1018100084B20A2094FBF0F03030C0B28DF8090099
:101820000A2094FBF0F100FB114084B204F1300077
:10183000C0B28DF80A0029208DF80B000D208DF81C
:101840000C000A208DF80D0000250DE01DF8051094
:10185000774801F07FFA00BF4021754801F0E8FAAF
:101860000128F9D1681CC5B20E2DEFDB724802F0D9
:1018700020FA044643208DF800004F208DF8010027
:1018800044208DF8020045208DF8030033208DF8A8
:10189000040028208DF8050042F2107094FBF0F04F
:1018A0003030C0B28DF8060042F2107094FBF0F1B7
:1018B00000FB114084B24FF47A7094FBF0F03030AA
:1018C000C0B28DF807004FF47A7094FBF0F100FB82
:1018D000114084B2642094FBF0F03030C0B28DF837
:1018E0000800642094FBF0F100FB114084B20A2050
:1018F00094FBF0F03030C0B28DF809000A2094FB60
:10190000F0F100FB114084B204F13000C0B28DF858
:101910000A0029208DF80B000D208DF80C000A20FC
:101920008DF80D0000250DE01DF80510404801F070
:1019300011FA00BF40213E4801F07AFA0128F9D19E
:10194000681CC5B20E2DEFDB3C4802F0B2F904462C
:1019500043208DF800004F208DF8010044208DF8C1
:10196000020045208DF8030034208DF80400282063
:101970008DF8050042F2107094FBF0F03030C0B2E8
:101980008DF8060042F2107094FBF0F100FB11405C
:1019900084B24FF47A7094FBF0F03030C0B28DF81E
:1019A00007004FF47A7094FBF0F100FB114084B211
:1019B000642094FBF0F03030C0B28DF80800642051
:1019C00094FBF0F100FB114084B20A2094FBF0F08C
:1019D0003030C0B28DF809000A2094FBF0F100FB12
:1019E000114084B204F13000C0B28DF80A00292001
:1019F0008DF80B000D208DF80C000A208DF80D00DD
:101A000000250DE01DF80510094801F0A3F900BFFD
:101A10004021074801F00CFA0128F9D1681CC5B231
:101A20000E2DEFDB0120064908700DB030BD00001F
:101A3000004400400004004000080040000C00404A
:101A40001C0000202DE9F0414FF0804002F031F9F8
:101A50000446FE4802F02DF90546FD4802F029F93A
:101A60000646FC4802F025F90746FB480068201AA4
:101A7000FA490860FA480068281AFA490860FA48E2
:101A80000068301AF9490860F9480068381AF949BD
:101A90000860F1480460F2480560F3480660F448C5
:101AA0000760BDE8F08110B500240121F24802F082
:101AB00012F900287ED00121EF4802F01DF9EF480D
:101AC00000680028F6D0E34802F0F3F818B1E148C6
:101AD00002F0EFF80446EA480088FF2878DA20464A
:101AE000E6490968884273DB0120FFF723F80220EA
:101AF000FFF720F800214FF0804002F0B7F80021F6
:101B0000D24802F0B3F80021D14802F0AFF800212A
:101B1000D04802F0ABF80020D84908604021D948ED
:101B200001F086F9012803D14021D64801F08DF952
:101B30006621D44801F00EF900BF4021D14801F0E0
:101B400077F90128F9D16921CE4801F003F900BFE6
:101B50004021CC4801F06CF90128F9D16E21C94827
:101B600001F0F8F800BF4021C64801F061F90128F2
:101B7000F9D16921C34801F0EDF800BF4021C14807
:101B800001F056F90128F9D17321BE4801F0E2F8BD
:101B900000BF4021BB4801F04BF90128F9D1682171
:101BA000B84801F0D7F800BF4021B64801F040F92D
:101BB000012801E08AE00BE0F6D10D21B14801F0E7
:101BC000C9F800BF4021AF4801F032F90128F9D12E
:101BD000AB480088FF2879DD42F6F820001BA749B2
:101BE0000968884272DB002C70D00120FEF7A2FF4A
:101BF0000220FEF79FFF00214FF0804002F036F8F0
:101C00000021924802F032F80021914802F02EF8AB
:101C10000021904802F02AF80020984908604021ED
:101C2000984801F005F9012803D14021954801F0B9
:101C30000CF96621934801F08DF800BF40219148CE
:101C400001F0F6F80128F9D169218E4801F082F8F7
:101C500000BF40218B4801F0EBF80128F9D16E213B
:101C6000884801F077F800BF4021864801F0E0F88D
:101C70000128F9D16921834801F06CF800BF4021A7
:101C8000804801F0D5F80128F9D173217D4801F091
:101C900061F800BF40217B4801F0CAF80128F9D162
:101CA0006821784801F056F800BF4021754801F0DE
:101CB000BFF80128F9D10D21724801F04BF800BF9F
:101CC0004021704801F0B4F80128F9D110BD10B5D9
:101CD0006D480068002809DA00216C4801F0CAFF4D
:101CE00069480178694801F0C7FF08E06648017853
:101CF000664801F0BFFF0021644801F0BDFF644861
:101D00000068002809DA0021604801F0B7FF604848
:101D100001785E4801F0B4FF08E05D4801785B4857
:101D200001F0ACFF0021594801F0AAFF56480068B5
:101D3000002809DA0021574801F09CFF5648017835
:101D4000544801F099FF08E053480178514801F0E8
:101D500091FF00214F4801F08FFF4B480068002899
:101D600009DA00214B4801F089FF4C4801784948C5
:101D700001F086FF08E049480178464801F07EFFFF
:101D80000021444801F07CFF10BDC8203E4909688D
:101D90004242914202DA41423B4A11603A490968A3
:101DA000814201DD3849086039490968424291425F
:101DB00002DA4142364A116035490968814201DD43
:101DC00033490860344909684242914202DA41428B
:101DD000314A116030490968814201DD2E490860AD
:101DE0002E4909684242914202DA41422B4A11606F
:101DF0002A490968814201DD284908607047014687
:101E0000002901DA484200E0084670472DE9F04F0A
:101E100093B0234C25462646274620461290119023
:101E20004FF07C5010901F480F90342102A801F011
:101E300086FF0A4800681C490968401A1B49086067
:101E40000846006802F030FA294631E000040040FC
:101E500000080040000C00406000002070000020DE
:101E6000640000207400002068000020780000203A
:101E70006C0000207C0000200010004014000020B6
:101E80001800002000440040900000200034014071
:101E900094000020002C0140980000209C000020AD
:101EA0000000C8420AD7233C80000020AC0000207C
:101EB000009002F025FA824666490968664A12686F
:101EC000881A02F0F1F92146009002F019FA8346CF
:101ED000514602F089F881466048006802F0E4F952
:101EE0004946019002F080F8804602F0A1F95B4972
:101EF00008605848006858490860594800685949BE
:101F00000968401A584908600846006802F0CCF990
:101F10003946009002F0F4F9824653490968534A61
:101F20001268881A02F0C0F93146009002F0E8F910
:101F30008346514602F058F881464D48006802F049
:101F4000B3F94946019002F04FF8804602F070F96B
:101F500047490860444800684449086045480068AB
:101F600045490968401A454908600846006802F07A
:101F70009BF90090119902F0C3F982463F49096824
:101F80003F4A1268881A02F08FF90090129902F005
:101F9000B7F98346514602F027F881463948006870
:101FA00002F082F94946019002F01EF8804602F0E4
:101FB0003FF93449086031480068314908603248C7
:101FC000006832490968401A3149086008460068CB
:101FD00002F06AF982460F9902F092F980462C4984
:101FE00009682C4A1268881A02F05EF98246109934
:101FF00002F086F98146414601F0F6FF2649086065
:102000002348006802F050F983460F9902F078F9EE
:1020100081461F4909681F4A1268881A02F044F96C
:102020008346109902F06CF98246494601F0DCFFC4
:10203000804602F0FDF819490860194800680968EF
:10204000084417490860124800681249086013B034
:10205000BDE8F08FAC000020B4000020B0000020EC
:102060007400002084000020B8000020C000002080
:10207000BC0000207800002088000020C400002060
:10208000CC000020C80000207C0000208C00002034
:10209000D0000020D4000020A8000020A0000020D4
:1020A0009C00002010B56FF0040000F078F92E4875
:1020B00000682E49B0FBF1F02D4908700846007801
:1020C00000EB4001C1EBC0104FF6FF7101EAC00008
:1020D0002849088010BD0146254A12784A434FF02E
:1020E000E0235A6100229A611A46126942F0010205
:1020F0001A6100BF4FF0E022106900F001021AB12E
:1021000000F48032002AF5D04FF0E022126922F06C
:1021100001024FF0E0231A6100229A6170470146E4
:10212000144A12884A434FF0E0235A6100229A6110
:102130001A46126942F001021A6100BF4FF0E02214
:10214000106900F001021AB100F48032002AF5D0C3
:102150004FF0E022126922F001024FF0E0231A61F1
:1021600000229A61704700002000002000127A00CF
:10217000D8000020DA000020014600BF704700BFF1
:102180004A4A128802F04002002AF9D0C2B2474BF4
:102190001B1D1A80704710B586B00446012104202B
:1021A00000F038FC0121480400F041FC0420ADF8A7
:1021B000140003208DF8160018208DF8170005A9CB
:1021C0003B4800F06BF90820ADF8140004208DF8AE
:1021D000170005A9364800F061F926208DF80000A7
:1021E00003208DF801008DF8020001208DF8030016
:1021F000684600F08AF801940020ADF80800ADF8B8
:102200000A00ADF80C00ADF810000C20ADF80E007F
:1022100001A9284800F0A5FC012240F225512548DB
:1022200000F037FD0121234800F027FD06B010BD66
:1022300010B540F225511F4800F010FE10B31D48A4
:1022400000F08CFDC4B21C48008800F40040C8B9FE
:102250001948008800F4804060B10A2C03D00020A7
:102260001549088020E01448008840F400401249D5
:10227000088019E00D2C06D10F48008840F48040FA
:102280000D49088010E00C480088C0F30D000B4990
:102290000C5409480088401C0749088008460088FB
:1022A000C72801DD0020088010BD00000038014073
:1022B0000008014000440040E0000020F800002039
:1022C0000948804709480047FEE7FEE7FEE7FEE7CA
:1022D000FEE7FEE7FEE7FEE7FEE7FEE70448054906
:1022E000054A064B704700009703000831010008BB
:1022F00020020020200800202004002020040020CC
:1023000031490143314A1160704770B50021002303
:102310000F22C47804B32D4C246804F4E064C4F59F
:10232000E064210AC1F10403CA40447804FA03F1CD
:102330008478144021430901254C0678A15504787E
:1023400004F01F050124AC4005786D11AD0005F1C6
:10235000E025C5F8004109E0047804F01F050124D8
:10236000AC401C4D0678761145F8264070BD1A4ADF
:102370000A400243154B1B1F1A60704739B1134ABC
:10238000121D12680243114B1B1D1A6006E00F4A12
:10239000121D126882430D4B1B1D1A6070470428E2
:1023A00008D14FF0E021096941F004014FF0E0222B
:1023B000116107E04FF0E021096921F004014FF0BD
:1023C000E0221161704700000000FA050CED00E00A
:1023D00000E400E080E100E080FFFF1F10B504464C
:1023E000CC48844208D10121042000F02DFB0021BB
:1023F000042000F029FB46E0C748844208D10121AF
:10240000082000F021FB0021082000F01DFB3AE02D
:10241000C248844208D10121102000F015FB0021A0
:10242000102000F011FB2EE0BD48844208D10121AC
:10243000202000F009FB0021202000F005FB22E015
:10244000B848844208D10121402000F0FDFA002163
:10245000402000F0F9FA16E0B348844208D1012187
:10246000802000F0F1FA0021802000F0EDFA0AE06F
:10247000AE48844207D10121801500F0E5FA002121
:10248000A01500F0E1FA10BD10B50121084600F0DA
:10249000DBFA0021012000F0D7FA10BD2DE9F04150
:1024A000024600250026002000230024002791F882
:1024B00003C00CF00F0591F803C00CF0100CBCF138
:1024C000000F03D091F802C04CEA050591F800C056
:1024D000BCF1000F31D0146800202BE04FF0010C4C
:1024E0000CFA00F3B1F800C00CEA03069E4220D1BA
:1024F00083004FF00F0C0CFA03F7BC4305FA03FC02
:102500004CEA040491F803C0BCF1280F06D14FF047
:10251000010C0CFA00FCC2F814C00AE091F803C0E8
:10252000BCF1480F05D14FF0010C0CFA00FCC2F8C9
:1025300010C0401C0828D1D31460B1F800C0BCF111
:10254000FF0F34DD546800202EE000F1080C4FF03E
:10255000010808FA0CF3B1F800C00CEA03069E4229
:1025600021D183004FF00F0C0CFA03F7BC4305FA9E
:1025700003FC4CEA040491F803C0BCF1280F05D118
:1025800000F1080C08FA0CF8C2F8148091F803C0A6
:10259000BCF1480F07D100F1080C4FF0010808FA10
:1025A0000CF8C2F81080401C0828CED35460BDE857
:1025B000F0814FF6FF710180022181700421C1700A
:1025C00070470246002093680B400BB1012000E0E9
:1025D000002070470146886880B27047024600209C
:1025E000D3680B400BB1012000E00020704701468A
:1025F000C86880B2704701617047416170470AB195
:10260000016100E041617047C16070474FF4803262
:102610000A438261816182618269826970470246F0
:102620000020434B18684FF68073184040EA0210B0
:1026300008433F4B186070473E49C8617047F0B58A
:102640000A46002300240021002500F00046B6F1D0
:10265000004F02D1364EF16901E0354E7168C0F38A
:10266000034583B200F44016B6F5401F08D121F0AF
:1026700070612F4E766826F070662D4F7E6012E0F6
:1026800000F48016B6F5801F06D1032606FA05F47D
:10269000A14341F0706106E0460D360103FA06F6EB
:1026A000B14341F0706122B1460D360103FA06F6DE
:1026B000314300F00046B6F1004F02D11C4EF161EB
:1026C00001E01B4E7160F0BD30B500228B071C0F7E
:1026D0000F2303FA04F2164B08338C1053F82430FE
:1026E0009343134C08348D1044F8253023468C1046
:1026F00053F824308C07240F00FA04F423430C4CC5
:1027000008348D1044F8253030BD0A49DC310860AA
:102710007047000000080140000C0140001001401B
:102720000014014000180140001C0140002001403D
:102730000000014000002042DF48006840F0010036
:10274000DD49086008464068DC490840DA494860CD
:1027500008460068DA490840D7490860084600681A
:1027600020F4802008600846406820F4FE0048609D
:102770004FF41F0088607047CF49096821F4803109
:10278000CD4A11601146096821F480211160B0F52D
:10279000803F03D0B0F5802F0ED106E0C64909680E
:1027A00041F48031C44A116007E0C349096841F42B
:1027B000A021C14A116000E000BF00BF704710B502
:1027C00001460022002300204A11012A02D1BA4CFE
:1027D000236806E0022A02D1B74C236A01E0B64C16
:1027E000636A01F01F02012494401C400CB10120D7
:1027F00000E0002010BD38B5002000900024002526
:1028000000BF3120FFF7DBFF05460098401C009019
:102810000098B0F5A06F01D0002DF2D03120FFF765
:10282000CEFF08B1012400E00024204638BD014657
:102830000020A14A106820F0F80040EAC1001060B2
:102840007047A04908607047024600209A4B5868BC
:1028500020F47C1042EA01031843974B58607047FC
:1028600098490866704701460020934A506820F056
:1028700003000843506070478F48406800F00C0028
:102880007047014600208C4A506820F0F000084351
:102890005060704701460020874A506820F4E0608D
:1028A00008435060704701460020834A506820F476
:1028B000605040EAC1005060704729B17E4A527AA8
:1028C00002437D4B5A7204E07B4A527A82437A4B30
:1028D0005A7270477B49D831086070470146002022
:1028E000754A506820F4404008435060704700210A
:1028F000714A20321170704A82F82010012802D0EB
:1029000004280AD104E001216B4A2032117005E04D
:102910000521694A2032117000E000BF00BF7047F6
:102920006949086070476449096A0143624A116253
:102930007047654944390860704730B5002100226E
:10294000002400235C4D6D6805F00C0121B10429C1
:1029500005D0082923D105E05C4D056022E05B4DE0
:1029600005601FE0544D6D6805F47012524D6D689E
:1029700005F48034022505EB92421CB9544D5543B1
:1029800005600BE04C4D6D6805F400351DB1504DF0
:102990005543056002E04D4D5543056002E04B4D47
:1029A000056000BF00BF444D6D6805F0F0010909E6
:1029B000484D6B5C0568DD4045603F4D6D6805F432
:1029C000E061090A434D6B5C4568DD4085603A4D26
:1029D0006D6805F46051C90A3E4D6B5C4568DD4089
:1029E000C560354D6D6805F44041890B3A4D6B5C0F
:1029F000C568B5FBF3F5056130BD29B12E4A5269B2
:102A000002432D4B5A6104E02B4A526982432A4B00
:102A10005A61704729B1284A92690243264B9A614C
:102A200004E0254A92698243234B9A61704729B199
:102A3000214AD2690243204BDA6104E01E4AD2697E
:102A400082431D4BDA61704729B11B4AD2680243A9
:102A5000194BDA6004E0184AD2688243164BDA60F8
:102A6000704729B1144A12690243134B1A6104E0FA
:102A7000114A12698243104B1A617047124940395A
:102A8000086070470F49C86470470B49C8717047A8
:102A90000948406A40F08070074948627047014623
:102AA0000020054A92680A400AB1012000E0002097
:102AB0007047014988727047001002400000FFF81B
:102AC000FFFFF6FE000042428004424200127A00FC
:102AD00000093D00E2000020F200002010B504468D
:102AE000FB48844209D101218803FFF7ADFF002193
:102AF0004FF48040FFF7A8FF32E0F648844209D146
:102B000001214804FFF7ADFF00214FF40030FFF72B
:102B1000A8FF25E0F048844209D101218804FFF78D
:102B2000A0FF00214FF48020FFF79BFF18E0EB4847
:102B3000844209D10121C804FFF793FF00214FF41B
:102B40000020FFF78EFF0BE0E548844208D1012109
:102B50000805FFF786FF00214FF48010FFF781FF83
:102B600010BD2DE9F04786B005460E460024A2466A
:102B700000BFA1460027B08900B100BF2F462C8AB4
:102B80004CF6FF700440F08804432C82AC894EF66A
:102B9000F3100440B0883189084371890843044325
:102BA000AC81AC8A4FF6FF400440B0890443AC824C
:102BB00001A8FFF7C2FEC648874202D1DDF810A087
:102BC00001E0DDF80CA0A88900F4004040B10AEB58
:102BD000CA0000EB0A1031684900B0FBF1F807E0C9
:102BE0000AEBCA0000EB0A1031688900B0FBF1F86B
:102BF0006420B8FBF0F004012009642101FB108976
:102C0000A88900F4004040B1322000EBC900B0FBBD
:102C1000F1F000F00700044308E0322000EB091057
:102C20006421B0FBF1F000F00F0004432C8106B0EA
:102C3000BDE8F0874FF41651016000218180C1800A
:102C400001810C21418100218181704710B502462C
:102C50000020108A4FF2FF0318400B884C88234352
:102C60008C882343CC8823431843108210BD002155
:102C7000018041808180C180704721B1828942F406
:102C80000052828104E082894DF6FF731A408281EE
:102C90007047F0B50346002400260025002040F6CA
:102CA0006A17B94200D100BF1846C1F3421401F0BF
:102CB0001F06012707FA06F5012C01D10C3004E0AC
:102CC000022C01D1103000E014301AB107682F43F4
:102CD000076002E00768AF430760F0BD1AB1838A5E
:102CE0000B43838202E0838A8B4383827047028A8C
:102CF0004FF6F0731A400282028A0A43028270473A
:102D000082894FF2FF731A40828182890A4382814D
:102D1000704721B1828942F00202828104E08289F7
:102D20004FF6FD731A4082817047028A4FF6DF73B7
:102D30001A400282028A0A430282704721B1028A43
:102D400042F48042028204E0028A4BF6FF731A408A
:102D500002827047C1F3080282807047014688886A
:102D6000C0F308007047818941F0010181817047FB
:102D7000028BD2B20283028B42EA012202837047A5
:102D8000028B02F47F420283028B0A430283704764
:102D900021B1828A42F02002828204E0828A4FF6C8
:102DA000DF731A408282704721B1828A42F010029A
:102DB000828204E0828A4FF6EF731A408282704763
:102DC00021B1828A42F00802828204E0828A4FF6B0
:102DD000F7731A408282704721B1828942F400421F
:102DE000828103E08289C2F30E028281704721B1A1
:102DF000828A42F40062828204E0828A4FF2FF7388
:102E00001A4082827047828A4FF6FB731A40828290
:102E1000828A0A438282704721B1828A42F002028A
:102E2000828204E0828A4FF6FD731A4082827047E4
:102E300002460020B1F5007F00D100BF13880B408F
:102E40000BB1012000E00020704701F40072B2F5E0
:102E5000007F00D100BFCA430280704770B50246B0
:102E6000002400230025002040F66A16B14200D15C
:102E700000BFC1F3421501F01F03012606FA03F358
:102E8000012D02D19689334006E0022D02D1168A27
:102E9000334001E0968A33400C12012606FA04F40E
:102EA0001688344013B10CB1012000E0002070BD41
:102EB00010B50022002340F66A14A14200D100BFE1
:102EC0000A1201249440A3B2DC43048010BD000028
:102ED000003801400044004000480040004C0040E1
:102EE0000050004010B50446FE48844208D101213C
:102EF000C014FFF7A9FD0021E014FFF7A5FDC4E011
:102F0000B4F1804F08D101210846FFF7AAFD002146
:102F10000120FFF7A6FDB8E0F348844208D1012163
:102F20000220FFF79EFD00210220FFF79AFDACE092
:102F3000EE48844208D101210420FFF792FD0021D0
:102F40000420FFF78EFDA0E0E948844208D101216A
:102F50000820FFF786FD00210820FFF782FD94E09E
:102F6000E448844208D101211020FFF77AFD0021B6
:102F70001020FFF776FD88E0DF48844208D1012168
:102F80002020FFF76EFD00212020FFF76AFD7CE086
:102F9000DA48844208D101214014FFF755FD002191
:102FA0006014FFF751FD70E0D548844209D101213A
:102FB000C804FFF749FD00214FF40020FFF744FD4E
:102FC00063E0D048844209D101210805FFF73CFDA8
:102FD00000214FF48010FFF737FD56E0CA488442C5
:102FE00009D101214805FFF72FFD00214FF4001002
:102FF000FFF72AFD49E0C548844208D1012140205D
:10300000FFF72FFD00214020FFF72BFD3DE0C048DA
:10301000844208D101218020FFF723FD0021802078
:10302000FFF71FFD31E0BB48844208D10121801524
:10303000FFF717FD0021A015FFF713FD25E0B648A7
:10304000844209D101210804FFF7FEFC00214FF45E
:103050008030FFF7F9FC18E0B048844209D1012123
:103060004804FFF7F1FC00214FF40030FFF7ECFCBF
:103070000BE0AB48844208D101218804FFF7E4FC4F
:1030800000214FF48020FFF7DFFC10BD00220288F2
:10309000944B98420ED0994B98420BD0B0F1804F90
:1030A00008D0914B984205D0904B984202D0904B5B
:1030B000984204D14FF68F731A404B881A438D4BB8
:1030C000984207D08C4B984204D04FF6FF431A40E9
:1030D000CB881A4302808B8883850B880385814BBC
:1030E00098420BD0854B984208D08B4B984205D024
:1030F0008A4B984202D08A4B984201D10B7A0386C0
:1031000001238382704770B5002400220023058CC0
:103110004FF6FE7635400584028C8388048B4FF68B
:103120008F752C40B51E2C400D882C43751E2A40EF
:103130000D892A434D882A436A4DA8420BD06F4D12
:10314000A84208D0744DA84205D0744DA84202D0C0
:10315000734DA84213D14FF6F7752A404D892A4383
:103160004FF6FB752A408D882A434FF6FF652B40AA
:103170004FF6FF552B408D892B43CD892B43838000
:103180000483CD888586028470BD70B5002400223A
:103190000023058C4FF6EF7635400584028C83883A
:1031A000048B48F6FF752C404FF6FF452C400D88E8
:1031B0004FF6FF7606EA05252C434FF6DF752A40C9
:1031C0000D8906EA05152A434D8806EA05152A43A6
:1031D000444DA84202D0494DA8421DD14FF67F75FB
:1031E0002A404D894FF6FF7606EA05152A434FF629
:1031F000BF752A408D8806EA05152A434FF6FF352C
:103200002B404FF2FF752B408D8906EA85052B4335
:10321000CD8906EA85052B4383800483CD88058705
:10322000028470BD70B5002400220023058C4FF687
:10323000FF6635400584028C8388848B4FF68F753A
:103240002C404FF6FC752C400D882C434FF6FF5553
:103250002A400D894FF6FF7606EA05252A434D8858
:1032600006EA05252A431F4DA84202D0234DA84255
:103270001DD14FF2FF752A404D894FF6FF7606EAC1
:1032800005252A434FF6FF352A408D8806EA052595
:103290002A434EF6FF752B404DF6FF752B408D8966
:1032A00006EA05152B43CD8906EA05152B438380D5
:1032B0008483CD888587028470BD70B50022002389
:1032C0000024058C4EF6FF7635400584038C8488F7
:1032D000828B48F6FF752A404FF6FF452A400D883D
:1032E00020E00000002C01400004004000080040E5
:1032F000000C004000100040001400400034014069
:10330000004C0140005001400054014000180040B2
:10331000001C0040002000400040014000440140EB
:10332000004801404FF6FF7606EA05252A434DF690
:10333000FF752B400D8906EA05352B434D8806EABB
:1033400005352B43FA4DA84202D0FA4DA84208D1C8
:103350004BF6FF752C408D894FF6FF7606EA8515F2
:103360002C4384808283CD88A0F84050038470BDB4
:10337000828B4FF2FF331A408283828B4FF6FF73AA
:1033800003EA01231A4382837047F0B50C461546C1
:10339000002200210026078C4EF6FF7C07EA0C076E
:1033A0000784828B018C4FF6FF7707EA043640F6DC
:1033B000FF473A404FF6FF7707EA05273A434FF6B3
:1033C000FF7707EA03373A43D94FB8420ED0D94FB7
:1033D000B8420BD0B0F1804F08D0D74FB84205D0DB
:1033E000D64FB84202D0D64FB84206D14DF6FF773D
:1033F000394046F48057394305E047F6FF573940D6
:1034000044F48057394382830184F0BD828B4FF6A8
:10341000F3731A408283828B0A4382837047F0B52C
:103420000C461546002200210026078C4FF6FF6C43
:1034300007EA0C070784828B018C4FF6FF7707EAB7
:1034400004264FF60C773A404FF6FF7707EA03174A
:103450002F433A43B64FB8420ED0B64FB8420BD0C6
:10346000B0F1804F08D0B44FB84205D0B34FB84246
:1034700002D0B34FB84206D14FF6FF57394046F459
:103480008077394305E04FF2FF57394044F48077A5
:10349000394382830184F0BD028B4FF2FF331A401F
:1034A0000283028B4FF6FF7303EA01231A43028360
:1034B0007047F0B50C461546002200210026078C07
:1034C0004FF6EF7C07EA0C070784028B018C4FF65E
:1034D000FF7707EA041640F6FF473A404FF6FF77BA
:1034E00007EA03373A434FF6FF7707EA05273A43DF
:1034F0008F4FB8420ED08F4FB8420BD0B0F1804FF3
:1035000008D08D4FB84205D08C4FB84202D08C4FB6
:10351000B84206D14FF6DF77394046F010073943FD
:1035200005E04FF65F77394044F0100739430283D6
:103530000184F0BD028B4FF6F3731A400283028BB5
:103540000A4302837047F0B50C461546002200215D
:10355000068C4FF6FE773E400684028B018C4FF6B8
:103560000C7632407E1C06EA03162E433243704E20
:10357000B0420ED06F4EB0420BD0B0F1804F08D0A9
:103580006D4EB04205D06D4EB04202D06C4EB0428E
:1035900006D14FF6FD76314044F00106314305E097
:1035A0004FF6F576314044F0010631430283018441
:1035B000F0BD70B505460C465D4885420ED05D48AD
:1035C00085420BD0B5F1804F08D05B48854205D0CD
:1035D0005A48854202D05A48854200D100E000BFD7
:1035E000208850B92389A28861882846FFF7ABFF5D
:1035F000E1882846FFF79EFF25E0208804280AD1AD
:103600002389A28861882846FFF753FFE18828466E
:10361000FFF742FF17E0208808280AD12389A288F3
:1036200061882846FFF7FBFEE1882846FFF7EEFE9B
:1036300009E02389A28861882846FFF7A6FEE18871
:103640002846FFF795FE70BD2DE9F04105460C4672
:1036500000260127608808B9022600E00026A0881D
:10366000012801D1022700E001272088A0B9238981
:10367000A28861882846FFF766FFE1882846FFF7A1
:1036800059FF23893A4631462846FFF712FFE18861
:103690002846FFF701FF13E02389A28861882846A6
:1036A000FFF707FFE1882846FFF7F6FE23893A4631
:1036B00031462846FFF747FFE1882846FFF73AFFE3
:1036C000BDE8F0810A884B881A438B881A43CB885F
:1036D0001A430B891A434B891A438B891A43A0F862
:1036E000442070474FF6FF71818000210180C18026
:1036F0004180017270470021018041808180C1803A
:10370000018141818181C181704700210180418017
:10371000012181800021C180018170470021018049
:1037200041808180C1800181418181817047000099
:10373000002C01400034014000040040000800401B
:10374000000C004021B1028842F00102028004E036
:1037500002884FF6FE731A400280704731B1B0F80C
:10376000442042F40042A0F8442005E0B0F8442090
:10377000C2F30E02A0F8442070471AB183890B43AC
:10378000838102E083898B43838170478182704704
:1037900041EA0203A0F8483070471AB183890B430D
:1037A000838102E083898B438381704701894FF6CF
:1037B000F8721140018170470A46002101894FF6D5
:1037C0008F73194011430181704730B504460D468F
:1037D00029462046FFF7F0FF208940F007002081AE
:1037E00030BD2DE9F04104460D4616461F46602DBA
:1037F00006D13B46012231462046FFF75AFE05E03E
:103800003B46012231462046FFF79DFE29462046D1
:10381000FFF7D2FF208940F007002081BDE8F0814A
:1038200030B50C4600210189C9B24FF6FF7505EA93
:103830000325154325432943018130BD2DE9F0417E
:1038400005460E4617469846002443463A463146FA
:103850002846FFF7E5FF2C894FF6F870044044F046
:1038600007044FF68F70044044F070042C81BDE8CB
:10387000F081F0B504460D4616461F463B463246DB
:1038800029462046FFF7CCFF208940F48040208164
:10389000F0BD0185828270470A46002101884FF6FB
:1038A0008F731940114301807047F0B50C461546DF
:1038B0001E460021002200230189028B038C4FF653
:1038C000F877394021434FF6FC473A4040F2011760
:1038D0003A434FF6DD773B404FF6FF7707EA06178E
:1038E0002F433B43018102830384F0BD0A4600213C
:1038F000018B4FF68F7319401143018370470A46BD
:103900000021018B48F6FF7319404FF6FF7303EA5D
:1039100002231943018370470A460021818B4FF629
:103920008F7319401143818370470A460021818BB0
:1039300048F6FF7319404FF6FF7303EA0223194359
:103940008183704721B1028842F08002028004E046
:1039500002884FF67F731A400280704721B1828837
:1039600042F00402828004E082884FF6FB731A4022
:103970008280704721B1828842F00802828004E090
:1039800082884FF6F7731A408280704721B182888F
:1039900042F00102828004E082884FF6FE731A40F2
:1039A000828070470A460021018B4FF6F773194059
:1039B0001143018370470A460021018B4FF2FF73C8
:1039C00019404FF6FF7303EA02231943018370473E
:1039D0000A460021818B4FF6F7731940114381830A
:1039E00070470A460021818B4FF2FF7319404FF652
:1039F000FF7303EA02231943818370470A460021BB
:103A0000018B4FF6FB7319401143018370470A463F
:103A10000021018B4FF6FF3319404FF6FF7303EA85
:103A200002231943018370470A460021818B4FF618
:103A3000FB7319401143818370470A460021818B33
:103A40004FF6FF3319404FF6FF7303EA0223194381
:103A5000818370470A460021018B4FF67F7319401E
:103A60001143018370470A460021018BC1F30E0107
:103A70004FF6FF7303EA02231943018370470A4696
:103A80000021818B4FF67F7319401143818370476A
:103A90000A460021818BC1F30E014FF6FF7303EA42
:103AA00002231943818370470A460021018C4FF697
:103AB000FD7319401143018470470A460021018CAF
:103AC0004FF6F77319401143018470470A460021ED
:103AD000018C4FF6DF7319404FF6FF7303EA0213B0
:103AE0001943018470470A460021018C4FF67F7309
:103AF00019404FF6FF7303EA02131943018470471C
:103B00000A460021018C4FF6FF5319404FF6FF7310
:103B100003EA02231943018470470A460021018CFD
:103B20004FF2FF7319404FF6FF7303EA0223194364
:103B3000018470470A460021018C4DF6FF7319403D
:103B40004FF6FF7303EA023319430184704730B51F
:103B5000002301248C40A3B2048C9C430484048C75
:103B600002FA01F5ADB22C43048430BD30B5002318
:103B700004248C40A3B2048C9C430484048C02FA79
:103B800001F5ADB22C43048430BD70B5034600206E
:103B900000241846183001258D40ACB21D8CA54379
:103BA0001D8409B1082909D100EB6100056825F0E1
:103BB000700505600568154305600EE00D1FC5F32F
:103BC0004E052844056825F4E045056005684FF674
:103BD000FF7606EA02263543056070BD21B10288F2
:103BE00042F00202028004E002884FF6FD731A40A0
:103BF0000280704721B1028842F00402028004E092
:103C000002884FF6FB731A400280704721B1828808
:103C100042F08002828004E082884FF67F731A406F
:103C20008280704702884FF6F7731A40028002883C
:103C30000A430280704782884FF68F731A40828051
:103C400082880A438280704702894FF6F8731A40CF
:103C5000028102890A430281704702894FF67F730D
:103C60001A40028102890A430281704781847047A9
:103C700081857047818670470187704781877047CB
:103C8000A0F84010704702884FF6FF431A400280A8
:103C900002880A43028070470146888E70470146B9
:103CA000088F70470146888F70470146B1F8400081
:103CB00070470146888C70470146088D7047024660
:103CC0000020138A0B400BB1012000E00020704758
:103CD000CA430282704730B5024600200023002408
:103CE000158A05EA0103958905EA010413B10CB1AF
:103CF000012000E0002030BDCA43028270477047B7
:103D000070B5064600F046F80468054630460A22BB
:103D1000002100F043F82C6070BD30B505460B461D
:103D20002A4613F8014B12F8010B08B1A042F8D053
:103D30001CB1002802D06D1CF1E7284630BD4FF0C1
:103D4000000200B5134694469646203922BFA0E8EB
:103D50000C50A0E80C50B1F12001BFF4F7AF0907F7
:103D600028BFA0E80C5048BF0CC05DF804EB8900E8
:103D700028BF40F8042B08BF704748BF20F8022B2B
:103D800011F0804F18BF00F8012B70477047704743
:103D90007047704700487047C00100202DE9F04788
:103DA00091460F4680460446002614F8015B2DB16B
:103DB00000F030F80068405DC007F6D12B2D02D02E
:103DC0002D2D18D0641E4A463946204600F02AF8A8
:103DD00027B13968A14201D1C7F800804FF0020431
:103DE00071050BD54042002803DDFFF7D3FF0460C7
:103DF000A007BDE8F08746F48066E4E70028F8DA1B
:103E0000FFF7C8FF04606FF00040F2E7004870471A
:103E1000C001002010B500F079F8001D10BD00BFF2
:103E20009D0100002DE9F05F824615468B46002774
:103E30000AF10104B9460078302801D09DB113E0A1
:103E400014F8010B0127782803D0582801D045B178
:103E50000AE00DB1102D07D1002714F8010B102531
:103E600002E0082500E00A250026B0460EE005FB2A
:103E7000080005FB06F101271FFA80F801EB104648
:103E8000B6F5803F00D3B94614F8010B294600F07F
:103E900041F80028EBDABBF1000F05D00FB1641E2A
:103EA00000E05446CBF80040B9F1000F06D0FFF710
:103EB00071FF02210160C81EBDE8F09F48EA06407C
:103EC000FAE77546FFF7A2FFAE460500694653467E
:103ED00020F00700854618B020B5FEF7FFF9BDE8D1
:103EE00020404FF000064FF000074FF000084FF061
:103EF000000B21F00701AC46ACE8C009ACE8C009F2
:103F0000ACE8C009ACE8C0098D467047004870476E
:103F1000E00100203A2800D2303820F02002412A67
:103F200001D3A2F13700884201D34FF0FF30704730
:103F30000446AFF300802046FCF74AF94FF0013CFD
:103F400050F8042B51F8043B9A4221D1A2EB0C0308
:103F5000934313EACC1317D150F8042B51F8043BC8
:103F60009A4215D1A2EB0C03934313EACC130BD165
:103F700050F8042B51F8043B9A4209D1A2EB0C03F0
:103F8000934313EACC13DBD04FF00000704700BF1F
:103F9000D01A01BAB1FA81F101F0180122FA01F048
:103FA000CB40C1F12001DBB2C0B2C01A2CFA01F340
:103FB000D11A914311EAC311E6D1704710B5002917
:103FC0000AD00878002807D005487844FFF7B6FFE4
:103FD000002801D0002010BD0248784410BD000028
:103FE000DA060000D206000090EA010F48BF81F017
:103FF000004100F15882421A3CBF801A89184FEAEA
:10400000D0524FF07F4C1CEA410FA2EBD15318BFA6
:104010009CEA026F00F03B804FF0004C4CEA00201D
:104020004CEA012121FA03FC10EB0C0C1ED202F128
:10403000FF325FEA1C2040EBC25038BF70471CF0D3
:104040007F0F4FEA400C18BFBCF17F4F38BF70475D
:10405000C3F12003994008BF20F00100BCF17F4F5D
:1040600038BF7047A0F1C04000F011BA4FEA3C00E1
:10407000000A40EBC25028BF1CF0FF0F4FEA400C73
:10408000E6D018BFBCF17F4F38BF7047EAE79CEA23
:10409000026F05D010EA5C0F08BF00F000407047C7
:1040A00010B500F0AEF900BF64FBBE3E4FF47F0CCC
:1040B0001CEAD0121EBF1CEAD11392EA0C0F93EA3D
:1040C0000C0F00F0858090EA010F48BF42F4807227
:1040D00040F4000C41F400002CF07F4120F07F40C0
:1040E00000B58142A2EB03020FF2081CACEB504E6C
:1040F000C0F100009EF800E04FEA4E0E00FB0EFCFF
:1041000038BF49004FEA2C1C02F5FA020CFB0EF3F3
:104110004FEACE1E4FEA112C4FEAC1210EEB635E2F
:1041200042EB22420EFB0CFC4FEA1C5300FB031136
:104130004FEA112C4FEA01310EFB0CFC4FEADC4C2C
:1041400000FB0C11C14228BF09184CEB03335DF88A
:1041500004EB10EB410143EBC250B2F57C0F38BFCA
:10416000704729D512F0F00F1CBF00F1C04000F0DD
:1041700000407047008182838485868788898B8C84
:104180008D8E8F919293959697999A9C9D9FA0A2C0
:10419000A3A5A7A8AAACAEB0B2B3B5B7B9BCBEC010
:1041A000C2C5C7C9CCCED1D4D7D9DCDFE2E6E9ECB1
:1041B000F0F3F7FAFE0000004FEA400C0CF1807CAF
:1041C000BCF17E4F28BF7047B0F1C04000F05FB92E
:1041D00090EA010F0CEAD11348BF42F480726245A5
:1041E00038BF634507D213F47F0F16D080EA010071
:1041F00000F00040704710B500F003F9097EFC3E66
:1042000000F005B880EA010000F00040704780EA45
:10421000010000F0004000F03AB912F47F0F04BF33
:104220000248704780EA010000F031B90000C07F09
:1042300041000B0ED3F19E0208D950F400034FEA5F
:10424000032323FA02F048BF4042704710B500F044
:10425000D8F800BF49922480002070476FF00042D8
:1042600082EA200070470000C10DD1F19E0206DBFA
:104270004FEA002343F0004323FA02F07047004264
:1042800007D54FEA4001B1F1FE4F02D24FF00000D6
:10429000704710B500F0B5F84992248000207047AF
:1042A0006FEA20007047000010F0004148BF404214
:1042B000B0FA80F310FA03F2C3F19D030BD051EA78
:1042C000C35101EB1220530638BF704700F10100C3
:1042D00008BF20F001007047B0FA80F310FA03F233
:1042E000C3F19D030AD0D90501EB1220530638BF54
:1042F000704700F1010008BF20F001007047000086
:104300004FF47F0C1CEAD0121EBF1CEAD11392EAB4
:104310000C0F93EA0C0F00F0478090EA010F48BFA2
:1043200042F480724FF0004C4CEA00204CEA01212C
:1043300002EB0302A0FB0113A2F50002002918BF43
:1043400043F001035B0028BF4FEA330342EB2242F4
:104350005FEA132C4CEBC2502EBFBCEB436FB2F59F
:104360007C0F70474FEA036CBCF1004F08BF20F090
:104370000100B2F57C0F38BF70470BD582F0FF0209
:1043800012F5803FC8BF704700F1C040D8BF00F0B1
:104390000040704700F5000C5FEA4C0C48BF7047C6
:1043A000B0F1C04000F073B890EA010F0CEAD113ED
:1043B00048BF42F48072624538BF634504D280EA48
:1043C000010000F00040704710B500F01AF800BF7F
:1043D0008900013E00F007B800F009B85FEA410C1F
:1043E0005FEA1C6C08D080EA010000F050B85FEA78
:1043F000400C5FEA1C6CF6D14FF00040A0F5800045
:1044000070470EF1020E2EF0030E5EF8044B2442AC
:1044100004D44FEA4102B2F17F4F11D84FEA400372
:10442000B3F17F4F0CD80ED14FEAD07CB2F17F4F61
:104430000CEB4C0C0CF1020C08BF4CEBD17C04E0F3
:104440004FF0080C01E04FEAD17C0CEB4C0324FA4E
:1044500003F404F00704B4F1040C06D20EEB840C50
:10446000BDE810404CF0010C6047DFE80CF0070895
:1044700002024FF00040A0F5800010BD0846420047
:1044800018BFD2F1807288BF00F0004010BDFF213C
:1044900041EAD050C005704790EA010F48BF81F053
:1044A00000413FF5A8AD421A04D882F00042A0EBCB
:1044B000020011444FEAD0524FF07F4C1CEA410FEA
:1044C000A2EBD15318BF9CEA026F4AD04FF0004CC8
:1044D0004CEA00204CEA012121FA03FCB0EB0C0C61
:1044E0000FD412F0FE0F36D05FEA4C001DD500123B
:1044F00040EBC25038BF70471CF03F0F18BF7047E9
:104500000BE0A2F101025FEA1C2040EBC25038BF71
:1045100070471CF07F0F18BF7047C3F1200399400C
:1045200014BF401E20F00100704780084FEA12239C
:1045300008BF7047B0FA80FCA2EB0C02CCF1280C4B
:1045400060FA0CF093EA122F04BF00EBC2507047E0
:104550004FEAC3707047130A5FEADC1008BF704768
:10456000F6E79CEA026F04D010EA5C0F08BF002057
:10457000704710B5FFF745FF40DFF63E81F0004081
:1045800070470009121B242D363F48415A536C6571
:104590007E7719100B023D342F265158434A757C03
:1045A000676E323B2029161F040D7A7368615E57CF
:1045B0004C452B2239300F061D14636A7178474E23
:1045C000555C646D767F4049525B2C253E3708016F
:1045D0001A137D746F6659504B42353C272E1118C3
:1045E000030A565F444D727B60691E170C053A330F
:1045F00028214F465D546B627970070E151C232AE3
:1046000031384148535A656C777E09001B122D24BE
:104610003F3658514A437C756E671019020B343D82
:10462000262F737A6168575E454C3B3229201F164E
:104630000D046A6378714E475C55222B3039060FA2
:10464000141D252C373E0108131A6D647F764940EE
:104650005B523C352E2718110A03747D666F505942
:10466000424B171E050C333A21285F564D447B728E
:1046700069600E071C152A233831464F545D626B62
:1046800070790000B447000800000020F800000026
:104690006C010008AC480008F80000202807000062
:1046A000880100081001000043000000F8FFFFFF30
:1046B0000040404040404040404041414141414035
:1046C00040404040404040404040404040404040EA
:1046D0004005020202020202020202020202020279
:1046E000022020202020202020202002020202027E
:1046F00002029090909090901010101010101010D6
:1047000010101010101010101010101002020202E1
:104710000202888888888888080808080808080825
:104720000808080808080808080808080202020221
:104730004000000000000000000000000000000039
:104740000000000000000000000000000000000069
:104750000000000000000000000000000000000059
:104760000000000000000000000000000000000049
:104770000000000000000000000000000000000039
:104780000000000000000000000000000000000029
:104790000000000000000000000000000000000019
:1047A0000000000000000000000000000000000009
:1047B00000000000000000000000803F0000803F7B
:1047C0000000803F0000803F00000000000000006B
:1047D0000000000000A24A040000000000000000E9
:1047E00001020304060708090000000000000000A1
:1047F00000000000000000000000000000000000B9
:1048000000000000000000000000000000000000A8
:104810000000000000000000000000000000000098
:104820000000000000000000000000000000000088
:1048300000000000320000003200000032000000E2
:104840001400000000000000000000000000000054
:1048500096000000000000000000000000000000C2
:104860000000000000000000000000000000000048
:104870000000000000000000000000000000000038
:104880000000000000000000000000000000000028
:10489000000000000000000000000102030401020B
:0C48A000030406070809020406080000D3
:0400000508000131BD
:00000001FF
